:020000040800F2
:1000000000200020618A0008A98A0008A98A000847
:10001000A98A0008A98A0008A98A0008000000002F
:10002000000000000000000000000000A98A000895
:10003000A98A000800000000A98A0008AD6900082C
:10004000A98A0008A98A0008A98A0008A98A0008C4
:10005000A98A0008A98A00089D6A0008A56A000804
:10006000AD6A0008B56A0008BD6A0008A98A0008E0
:10007000A98A0008A98A0008A98A0008A98A000894
:10008000A98A0008A98A0008A98A000800000000BF
:10009000000000000000000000000000C56A000829
:1000A000016800086567000815680008896700088E
:1000B0009D670008B1670008C567000859820008FD
:1000C00065820008718200087D820008A98A000804
:1000D000A98A0008B17D0008C97D0008E57D0008F7
:1000E000ED6A0008A98A0008A98A0008000000003B
:1000F0000000000000000000000000000000000000
:1001000000000000000000000000000000000000EF
:100110000000000000000000D9670008ED6700083B
:1001200000000000000000000000000000000000CF
:1001300000000000000000000000000000000000BF
:1001400000000000000000000000000000000000AF
:10015000000000000000000000000000000000009F
:10016000000000000000000000000000000000008F
:10017000000000000000000000000000000000007F
:10018000000000000000000000000000000000006F
:10019000000000000000000000000000000000005F
:1001A000000000000000000000000000000000004F
:1001B000000000000000000000000000000000003F
:1001C0000000000000000000000000005FF808F1DF
:1001D000034613F8012B002AFBD1181A0138704787
:1001E00010B5054C237833B9044B13B10448AFF371
:1001F00000800123237010BD58070020000000007C
:10020000A896000808B5034B1BB103490348AFF398
:10021000008008BD000000005C070020A8960008D0
:1002200000207047704700BF2DE9F04FC1F307274A
:1002300083B000974FF033304FF400594FF44048EB
:100240002A274FF480444FF46045BDF930601FFA0F
:1002500082FB1FFA81FAC2F3072206F1FF3E03FB7D
:1002600006F6013B01920AEB03013B4A3B4BBDF80A
:1002700034C050601060C3F81490C3F81080D76089
:10028000009F5C611C61506010601D61D7608FB27F
:10029000C1F307215C611C61506010601D61C2F8F0
:1002A0000CA05C611C61506010601D61D1605C61DC
:1002B0001C61506010601D61D7602B270199DE44DE
:1002C0005C611C6150601060C3F81490C3F810802A
:1002D000D7605C611C61506010601D61D160CEF31D
:1002E00007215C611C61506010601D61C2F80CB098
:1002F0005C611C61506010601D61D1602C211FFA8F
:100300008EF75C611C61506010601D61D7605C619C
:100310001C6150601060C3F81490C3F81080D16065
:100320005C611C61AEB16FEA0C0C1FFA8CFC711E93
:100330000CF01F070CF4FC6646EAC72646EADC26EA
:1003400001394F1C506010601D61D6605C611C61FA
:10035000F6D103B0BDE8F08F000C01400010014061
:100360002DE9F04F06460F4687B00221554803F0AD
:1003700027FE0DF11602039205AA02920DF1120258
:100380000FFA86F8019204AA072339464D480092D5
:10039000424603F021FE4FF4005A4FF033314FF440
:1003A00040494FF02A0E4FF480444FF46045464BCD
:1003B0004648BDF814C0BDF8162041600FFA82FB14
:1003C0000160C3F814A0C3F81090C0F80CE00FFA55
:1003D0008CFE0CF1FF3CB4440BFB0EFE4FEA162BD7
:1003E0005C611C61416001601D61C0F80CB05C6122
:1003F0001C61416001601D61C6601FFA8CF6CCF380
:10040000072C5C611C61416001601D61C0F80CC07B
:100410005C611C61416001601D61C6602B265C61EE
:100420001C6141600160C3F814A0C3F81090C6605D
:1004300000265C611C61416001601D61C660072689
:1004400006325C611C61416001601D61C66096B24C
:10045000C2F307225C611C61416001601D61C260E2
:100460002C225C611C61416001601D61C6605C61A1
:100470001C6141600160C3F814A0C3F81090C26011
:100480005C611C61BEF1000F0DD044F6F7760EF1F1
:10049000FF32013AB2F1FF3F416001601D61C66069
:1004A0005C611C61F5D107226FF01F1305483946C6
:1004B000A0F810804282436108F04AFA07B0BDE814
:1004C000F08F00BFEC07002000100140000C01403D
:1004D0002DE9F04F064600270D4690468BB0D9B265
:1004E0005948BDF85040079203F06AFD33B21A46EE
:1004F00005930DF12603039309AB64F30F070293F1
:100500000DF12203019364F31F4708AB2CB241465F
:100510004D48009323464FF4005A4FF440494FF0A2
:100520002A08069403F058FD4FF033314FF4804011
:100530004FF46044454B464ABDF824E0BDF826C060
:1005400051600FFA8CFB1160C3F814A0C3F810902F
:10055000C2F80C800FFA8EF80EF1FF3EB6440BFB8A
:1005600008F84FEA162B58611861516011601C6140
:10057000C2F80CB058611861516011601C61D660FE
:100580001FFA8EF6CEF3072E586118615160116084
:100590001C61C2F80CE058611861516011601C6167
:1005A000D6602B260CF1FF3CAC44586118615160B9
:1005B0001160C3F814A0C3F81090D6602E0A5861D9
:1005C0001861516011601C61D6605861CCF3072638
:1005D0001861516011601C61D5601FFA8CF558617B
:1005E0001861516011601C61D660586118615160DA
:1005F00011601C61D5602C25586118615160116033
:10060000C3F814A0C3F81090D56058611861B8F110
:10061000000F0DD04FF6FF7608F1FF35013DB5F123
:10062000FF3F516011601C61D66058611861F5D1BF
:100630000548059B07990382069B4761438208F0A2
:1006400087F90BB0BDE8F08FEC07002000100140E7
:10065000000C01402DE9F04F0468444F246C83B036
:10066000BC427BD14FF033304FF460444FF4005E16
:100670004FF440471FFA81F9C1F307264FF02A0BC8
:100680004FF480414FF02B0A6FEA030C1FFA82F8F7
:10069000374BC2F30725374A50601060C3F814E0A7
:1006A0001F61C2F80CB059611961506010601C6183
:1006B000D66059611961506010601C61C2F80C90DD
:1006C00059611961506010601C61D66059611961EF
:1006D000506010601C61C2F80C9059611961506043
:1006E0001060C3F814E01F61C2F80CA059611961D1
:1006F000506010601C61D5605961196150601060D4
:100700001C61C2F80C8059611961506010601C6155
:10071000D5602C2559611961506010601C61C2F8C8
:100720000C805961196150601060C3F814E01F61BA
:10073000D56059611961506010601C610CF4FC6057
:100740000CF01F0440EAC420CCF3C42C40EA0C0097
:10075000D0605961196103B0BDE8F08F01930123A6
:100760000093A04703B0BDE8F08F00BF2902000846
:1007700000100140000C01402DE9F04F0668DFF841
:1007800034E1366C85B076451F46BDF8384040F000
:100790008A804FF033304FF480434FF400594FF4C8
:1007A00040486FEA040E4FF02A0B4FF4604496B2B3
:1007B000C2F3072203921FFA81FA3F4AC1F30725C9
:1007C0003E4907F1FF3C48600860C2F81490C2F847
:1007D0001080C1F80CB05361136148600860146167
:1007E000CD6053611361486008601461C1F80CA0CA
:1007F00053611361486008601461CD6053611361F7
:10080000486008601461C1F80CA04FF02B0A5361D6
:1008100013614860039D0860C2F81490C2F810800C
:10082000C1F80CA053611361486008601461CD6089
:1008300053611361486008601461CE606644B5B2CC
:10084000C6F3072653611361486008601461CE60E7
:1008500053611361486008601461CD602C255361B9
:100860001FFA8EFE136148600860C2F81490C2F847
:100870001080CD605361136197B10EF4FC650EF0EA
:100880001F0645EAC62545EADE250CF1FF3CBCF112
:10089000FF3F486008601461CD6053611361F4D17B
:1008A00005B0BDE8F08FCDE900340123B04705B0B5
:1008B000BDE8F08F2902000800100140000C014043
:1008C0002DE9F04F04684F4D246C83B0AC42BDF865
:1008D00030C040F08E801F464FF460444FF03333F9
:1008E00096464FF400594FF480424FF440484FF081
:1008F0002A0B45481FFA81FAC1F3072643496FEADC
:100900000C0507F1FF3C4B600B60C0F81490C0F879
:100910001080C1F80CB0426102614B600B60046151
:10092000CE600AEB0C061FFA86FBC6F3072642616F
:1009300002614B600B600461C1F80CA0426102616E
:100940004B600B600461CE602B26426102614B60FC
:100950000B600461C1F80CB0426102614B600B6036
:10096000C0F81490C0F81080CE602C261FFA8EFAC2
:10097000CEF3072E4261ADB202614B600B600461A1
:10098000C1F80CE0426102614B600B600461C1F888
:100990000CA0426102614B600B600461C1F80CE085
:1009A000426102614B600B600461C1F80CA04261BE
:1009B00002614B600B60C0F81490C0F81080CE60EC
:1009C0004261026197B105F4FC6605F01F0746EA33
:1009D000C72646EAD5250CF1FF3CBCF1FF3F4B6032
:1009E0000B600461CD6042610261F4D103B0BDE8E7
:1009F000F08F0125CDF804C00095A04703B0BDE8F5
:100A0000F08F00BF2902000800100140000C0140D7
:100A10002DE9F04F036946690A6D28338FB08B6466
:100A200002FB0633864D06AC074688460190CB6430
:100A30000FCD0FC495E80F00002E84E80F0040F39F
:100A4000FB80804BD7F818901B684946059300231C
:100A500006AA00294FF033347B4F7C4E029200935C
:100A6000CDF80C8040F3E880019A039D9DF800309A
:100A70002432183502EB830E05EB830301204FF07F
:100A800000084FF46042049308E008F1010888452B
:100A900080F2C4806E485FFA88F3C05CDEF80030F4
:100AA0001842F2D0049DDDF800B02968029B014392
:100AB0002960039805991B68B1F81CC0816C4FF040
:100AC0002A0A0CEB01050146B1F85010B0F85400A9
:100AD0000BFB01554FF4005B7C603C60C6F814B022
:100AE0004FF4404B6FEA03094FF48043C6F810B04F
:100AF000C7F80CA04FEA4C0A1FFA8AFA08FB00CC90
:100B0000A1EB0A01A0EB0A0080B289B20FFA81FBC7
:100B10000FFA80FA0BFB0AFA01381FFA8CFB5844D3
:100B2000CCF3072C736133617C603C603261C7F8A1
:100B30000CC0736133617C603C603261C7F80CB0FB
:100B40001FFA80FBC0F30720736133617C603C6057
:100B50003261F86073614FF4404033617C603C6007
:100B60003261C7F80CB04FF4005B736133617C6095
:100B70003C60C6F814B030612B201FFA85FC0139A7
:100B80006144F860C5F3072588B2C1F3072173619A
:100B900033617C603C603261FD60736133617C6015
:100BA0003C603261C7F80CC0736133617C603C60AB
:100BB0003261F96073612C2133617C603C60326189
:100BC000F8604FF44040736133617C603C60C6F86C
:100BD00014B03061F9600199736189691FFA89F96C
:100BE00033610AF1FF30BAF1000F3FF44EAF09F460
:100BF000FC6509F01F0C45EACC2545EAD9250138EA
:100C0000B0F1FF3F7C603C603261FD607361336135
:100C1000F5D108F101088845FFF63CAF019B009A29
:100C20005B6901329A42009206DA029B002903F1C5
:100C3000040302933FF718AF0FB0BDE8F08F00BF79
:100C4000C0960008D0070020000C014000100140B1
:100C5000609700082DE9F04F8C464FF033344FF485
:100C600040484FF400594FF02A0E4FF480454FF49E
:100C70006046D0F804A08068096985B007B2009783
:100C80001FFA81FB0138924B924A01900FFA8AF7C2
:100C90000098DA44CDF808B01FFA8AFBCDF80CB002
:100CA000DCF844A000FB07F7546001981460C3F817
:100CB0001490C3F81080C2F80CE00BF1FF3EC1F3B2
:100CC000072B5D611D61546014601E61C2F80CB099
:100CD0001FFA81FB5D611D61546014601E61C2F8E2
:100CE0000CB01FFA8EFBCEF3072E5D611D615460C0
:100CF00014601E61C2F80CE04FF02B0E50445D6191
:100D00001D61546014601E61C2F80CB05D611FFA71
:100D100080FB1D61C0F3072054601460C3F8149079
:100D2000C3F81080C2F80CE0CAF3072E1FFA8AFA43
:100D30005D611D61546014601E61C2F80CE05D616C
:100D40001D61546014601E61C2F80CA05D611D61DC
:100D5000546014601E61D0605D611D615460146058
:100D60001E61C2F80CB05D611D6154601460C3F86F
:100D70001490C3F810804FF02C08C2F80C805D610D
:100D80001D616FB107F1FF38002708F1FF38B8F196
:100D9000FF3F546014601E61D7605D611D61F4D136
:100DA000DCF81430994200F08F804B4A16886FEAC5
:100DB0000606B6B280F292805B1A4FF4005C4FF0E8
:100DC0003331009F1AB202FB07F70097039F414A95
:100DD0003B4403F1FF383E4B51604FF440491160F2
:100DE000C3F814C04FF02A0C4FF480444FF4604510
:100DF000C3F81090C2F80CC04FEA172C5C611C615C
:100E0000516011601D61C2F80CC01FFA88FCC8F364
:100E100007285C611C61516011601D61D7605C61D5
:100E20004FF400571C61516011601D61C2F80C80C5
:100E30005C611C61516011601D61C2F80CC04FF013
:100E40002B0C5C611C61516011605F61C3F81090F4
:100E5000C2F80CC05C611C61516011601D61C2F878
:100E60000CE05C611C61516011601D61C2F80CA056
:100E70005C611C61516011601D61D0602C205C615F
:100E80001C61516011601D61C2F80CB05C611C6195
:100E9000516011605F61009FC3F81090D0605C6189
:100EA000781E1C6187B106F4FC6706F01F0C47EA48
:100EB000CC2747EAD6260138471C516011601D61D6
:100EC000D6605C611C61F6D105B0BDE8F08F00BF53
:100ED00000100140000C0140DC070020CA1A0099F4
:100EE00012B202FB01F1029AC3F3072802F1FF3CA0
:100EF000CDF804801FFA8CF8CDF808804FF0333419
:100F00004FF40058404A009140494FF440494C602A
:100F10000C60C2F814804FF02A084FF480454FF45B
:100F20006047C2F81090C1F80C80DDF804809BB2D5
:100F3000CCF3072C556115614C600C601761C1F84A
:100F40000C80556115614C600C601761CB60556178
:100F50002B2315614C600C601761C1F80CC04FF475
:100F6000005C556115614C600C60DDF8088017610C
:100F7000C1F80C80556115614C600C60C2F814C05A
:100F8000C2F81090CB602C23556115614C600C6049
:100F90001761C1F80CE0556115614C600C60176178
:100FA000C1F80CA0556115614C600C601761C860F8
:100FB000556115614C600C6017610098C1F80CB068
:100FC000556115614C600C60C2F814C0C2F81090F5
:100FD000CB605561431E156100283FF475AF06F4E0
:100FE000FC6006F01F0C40EACC2040EAD620013B12
:100FF0005E1C4C600C601761C86055611561F6D1CC
:1010000005B0BDE8F08F00BF00100140000C0140AA
:101010002DE9F04F8FB0189C85B21FFA84FB0BF1BD
:10102000FF341FFA84FC189C029524B2019494B2F8
:1010300004EB0C0EC2F30725CDE904451FFA8EF52B
:101040009FB20995CEF307250CEB07060A95C3F36B
:1010500007250695B5B207958242C6F307251FFA04
:1010600081F90397089540F3BE818B4280F2C181DC
:101070004FF033364FF4005A019AA9EB07031BB225
:1010800002FB03F509F1FF3EAB4BAC4A0B951FFA8F
:101090008EF50C9556604FF440451660C3F814A0C9
:1010A0004FF02A0A4FF480474FF460481D61C2F8A0
:1010B0000CA0DDF814A05F611F6156601660C3F8D4
:1010C0001080C2F80CA0DDF810A05F611F615660AF
:1010D0001660C3F81080C2F80CA0DDF828A05F618C
:1010E0001F6156601660C3F81080C2F80CA05F61E3
:1010F0001F6156601660DDF824A0C3F81080C2F8A6
:101100000CA04FF4005A5F611F6156601660C3F86F
:1011100014A04FF02B0A1D61C2F80CA0DDF818A036
:101120005F611F6156601660C3F81080C2F80CA0A2
:10113000DDF80CA0CEF3072E5F611F6156601660CC
:10114000C3F81080C2F80CA05F611F615660166082
:10115000C3F81080C2F80CE05F611F615660DDF8D3
:1011600030E01660C3F81080C2F80CE04FF4005E67
:101170005F611F6156601660C3F814E04FF02C0EDB
:101180001D610B9DC2F80CE05F6105F1FF3E1F6120
:1011900085B14FF6FF7A019D0EF1FF3EBEF1FF3F94
:1011A00056601660C3F81080C2F80CA05F611F6122
:1011B000F2D10195029A4FF48046A31A019C1BB20A
:1011C00004FB03F502EB0B081FFA88F704976F1E68
:1011D00005974FF033344FF4604E4FF4005A4FF4FC
:1011E000404B2A27544B554AC8F3072854601460D3
:1011F000C3F814A0C3F810B0D7605E610A9F1E61E7
:1012000054601460C3F810E0C2F80C80DDF8108060
:101210005E611E6154601460C3F810E0C2F80C8077
:101220005E611E6154601460C3F810E0D7605E61B7
:101230001E6154601460099FC3F810E0D7602B272B
:101240005E611E6154601460C3F814A0C3F810B04E
:10125000D760069F5E611E6154601460C3F810E0A1
:10126000D760039F5E611E6154601460C3F810E094
:10127000D760089F5E611E6154601460C3F810E07F
:10128000D7605E611E61079F54601460C3F810E070
:10129000D7602C275E611E6154601460C3F814A0EF
:1012A000C3F810B0D7605E611E6185B14FF6FF785C
:1012B000059F019D013FB7F1FF3F54601460C3F8E3
:1012C00010E0C2F80C805E611E61F3D101954FF40D
:1012D00060444FF400584FF4404786B28BB24FF44D
:1012E00080404FF033314FF02A0BDDF808A0134A4D
:1012F000019D0193104B0AEB0C0E4FEA1A2A516024
:101300001160C3F814801F61C2F80CB058611861F5
:10131000516011601C61C2F80CA0586118615160E5
:1013200011601C61D6601FFA8EF6CEF3072E58614D
:1013300018615160116003E000100140000C014091
:101340001C61C2F80CE04FF02B0E5861186151601F
:1013500011601C61D6605861019ECC444FEA192986
:10136000186151601160C3F814801F61C2F80CE06D
:1013700058611861516011601C61C2F80C9058618D
:101380001861516011601C61D660CCF3072658616A
:101390001861516011601C61D6602C2605FB05F5B3
:1013A0001FFA8CFE58611861516011601C61C2F80F
:1013B0000CE05861186151601160C3F814801F611E
:1013C000D66058616E1E186155B14FF47845013EE4
:1013D000771C516011601C61D56058611861F6D1AD
:1013E0000FB0BDE8F08F8B4240F38E82824240F016
:1013F000418185B2AE46DE44631B1FFA8EF5CEF303
:10140000072E0B95CDF834E04FF033344FF44045C0
:101410004FF4005A4FF02A0E4FF480464FF46048C4
:10142000019A1BB202FB03F3904A0C93904B546059
:101430001460C3F814A01D61C2F80CE0DDF834E0BC
:101440005E611E6154601460C3F81080C2F80CE045
:10145000DDF82CE05E611E6154601460C3F81080FA
:10146000C2F80CE0DDF828E05E611E615460146093
:10147000C3F81080C2F80CE05E611E615460DDF8B4
:1014800024E01460C3F81080C2F80CE05E61AE4640
:101490001E6154601460C3F814A01D612B25D56033
:1014A000069D5E611E6154601460C3F81080D560B3
:1014B000039D5E611E6154601460C3F81080D560A6
:1014C000089D5E611E6154601460C3F81080D56091
:1014D0005E61079D1E6154601460C3F81080D56082
:1014E0005E611E6154601460C3F814A0C3F810E07C
:1014F0004FF02C0E0C9DC2F80CE05E6105F1FF3E32
:101500001E6185B14FF6FF7A019D0EF1FF3EBEF1DF
:10151000FF3F54601460C3F81080C2F80CA05E61F5
:101520001E61F2D101954FF033344FF4005A019A05
:10153000A7EB09031BB202FB03F509EB0B084C4BAD
:101540004A4A1FFA88F703974FF4404B54601460DF
:10155000C3F814A04FF02A0A4FF480464FF4604EAF
:10156000C3F810B0C2F80CA0DDF814A05E611E61D3
:1015700054601460C3F810E0C2F80CA0DDF810A0AD
:101580005E611E6154601460C3F810E0C2F80CA0E4
:10159000DDF828A05E611E6154601460C3F810E09D
:1015A000C2F80CA05E611E6154601460C3F810E0C4
:1015B000DDF824A0C8F30728C2F80CA04FF4005AA5
:1015C0005E611E6154601460C3F814A04FF02B0AD2
:1015D000C3F810B0C2F80CA05E611E6154601460C4
:1015E000C3F810E0C2F80C80DDF80C805E611E616B
:1015F00054601460C3F810E0C2F80C80DDF820805D
:101600005E611E6154601460C3F810E0C2F80C8083
:101610005E611E6154601460DDF81C80C3F810E048
:10162000C2F80C804FF400585E611E615460146073
:10163000C3F814804FF02C08C3F810B06F1EC2F826
:101640000C805E611E61002D3FF441AE4FF6FF78C5
:10165000019D013FB7F1FF3F54601460C3F810E0F3
:10166000C2F80C805E611E61F3D12FE6000C0140D0
:101670000010014085B22B1B4FF4005A4FF0333459
:10168000019A1BB202FB03F305F1FF3E9C4A0B9348
:101690009C4B1FFA8EF50C9554604FF44045146036
:1016A000C3F814A04FF02A0A4FF480464FF4604864
:1016B0001D61C2F80CA0DDF814A05E611E615460CB
:1016C0001460C3F81080C2F80CA0DDF810A05E61B1
:1016D0001E6154601460C3F81080C2F80CA04FF46F
:1016E000005ACEF3072E5E611E6154601460C3F889
:1016F0001080C2F80CE05E611E6154601460C3F893
:101700001080DDF830E0C2F80CE05E611E615460CC
:101710001460C3F814A04FF02B0A1D61C2F80CA08E
:10172000DDF818A05E611E6154601460C3F810807B
:10173000C2F80CA0DDF80CA05E611E61546014605C
:10174000C3F81080C2F80CA0DDF820A05E611E6115
:1017500054601460C3F81080C2F80CA05E611E6172
:101760005460DDF81CA01460C3F81080C2F80CA00F
:101770004FF4005A4FF02C0E5E611E6154601460ED
:10178000C3F814A01D610B9DC2F80CE05E6105F169
:10179000FF3E1E6185B14FF6FF7A019D0EF1FF3EBF
:1017A000BEF1FF3F54601460C3F81080C2F80CA073
:1017B0005E611E61F2D101954FF033344FF4005A4F
:1017C000019AA7EB09031BB202FB03F509EB0B0817
:1017D0004C4B4B4A1FFA88F703974FF4404B546029
:1017E0001460C3F814A04FF02A0A4FF480464FF457
:1017F000604EC3F810B0C2F80CA0DDF814A05E6112
:101800001E6154601460C3F810E0C2F80CA0DDF84B
:1018100010A05E611E6154601460C3F810E0C2F84D
:101820000CA0DDF828A05E611E6154601460C3F84E
:1018300010E0C2F80CA05E611E6154601460C3F831
:1018400010E0DDF824A0C8F30728C2F80CA04FF47C
:10185000005A5E611E6154601460C3F814A04FF01A
:101860002B0AC3F810B0C2F80CA05E611E61546070
:101870001460C3F810E0C2F80C80DDF80C805E61E3
:101880001E6154601460C3F810E0C2F80C80DDF8EB
:1018900020805E611E6154601460C3F810E0C2F8DD
:1018A0000C805E611E6154601460DDF81C80C3F81A
:1018B00010E0C2F80C804FF400585E611E61546065
:1018C0001460C3F814804FF02C08C3F810B06F1EDA
:1018D000C2F80C805E611E61002D3FF4F8AC4FF63B
:1018E000FF78019D013FB7F1FF3F54601460C3F8DA
:1018F00010E0C2F80C805E611E61F3D1E6E400BF27
:10190000000C014000100140019AA9EB07031BB233
:1019100002FB03F509F1FF3E0B951FFA8EF50C95BE
:101920004FF033364FF4005B4FF4404A2A254FF412
:1019300080474FF460487F4B7F4ACEF3072E5660B6
:101940001660C3F814B0C3F810A0D560059D5F61A0
:101950001F6156601660C3F81080D560049D5F61FA
:101960001F6156601660C3F81080D5600A9D5F61E4
:101970001F6156601660C3F81080D5605F611F61FB
:1019800056601660099DC3F81080D5602B255F61F5
:101990001F6156601660C3F814B0C3F810A0D5607C
:1019A000069D5F611F6156601660C3F81080D560A8
:1019B000039D5F611F6156601660C3F81080D5609B
:1019C0005F611F6156601660C3F81080C2F80CE0BA
:1019D0004FF02C0E5F611F6156600C9D1660C3F8BE
:1019E0001080D5600B9D5F611F6156601660C3F863
:1019F00014B0C3F810A0C2F80CE05F6105F1FF3E1F
:101A00001F6185B14FF6FF7A019D0EF1FF3EBEF1D9
:101A1000FF3F56601660C3F81080C2F80CA05F61EB
:101A20001F61F2D10195029D4FF4005A05F1FF3E6E
:101A30002B1B1FFA8EF509954FF033344FF4404BB2
:101A40002A254FF480464FF46047019A1BB202FBEF
:101A500003F8384B384ACEF3072E54601460C3F8AD
:101A600014A0C3F810B0D560059D5E611E6154607E
:101A700014601F61D560049D5E611E615460146036
:101A80001F61D5605E611E61546014601F61C2F801
:101A90000CE05E611E61546014601F61099D08F1D5
:101AA000FF3ED5602B255E611E6154601460C3F853
:101AB00014A0C3F810B0D560069D5E611E6154602D
:101AC00014601F61D560039D5E611E6154601460E7
:101AD0001F61D560089D5E611E61546014601F61C6
:101AE000D5605E611E615460079D14601F61D56002
:101AF0002C255E611E6154601460C3F814A0C3F805
:101B000010B0D5605E611E61B8F1000F3FF4DFAB2D
:101B10004FF6FF78019D0EF1FF3EBEF1FF3F54608E
:101B200014601F61C2F80C805E611E61F3D1FFF783
:101B3000CDBB00BF00100140000C014010B54FF6B6
:101B4000E07482B000944FF4FC640323C821322077
:101B5000374AFEF7BDFC00940223F0212520354AC8
:101B6000FEF7B6FC344C2B2007F05CF808B923884C
:101B70005BB32B2007F056F810B92388012B32D025
:101B80000A2007F04FF80028EDD0282007F04AF887
:101B90000028E8D0284C2B2007F044F808B9238807
:101BA000D3B12B2007F03EF810B92388012B2CD09D
:101BB0000A2007F037F808B902B010BD282007F056
:101BC00031F80028E7D102B010BD01212A2006F02B
:101BD000EDFF01232380D3E701212A2006F0E6FF51
:101BE00001232380E4E701462A2006F0DFFF4FF4BB
:101BF000967007F059F82B2007F014F80028FAD057
:101C00004FF4FA6007F050F8BAE701462A2006F0D0
:101C1000CDFF4FF4967007F047F82B2007F002F83D
:101C20000028FAD04FF4FA6007F03EF8C0E700BF92
:101C3000E0960008EC960008E80700202DE9F04F38
:101C4000AB4BB2F90E80B2F90C5083FB08328369BA
:101C50000C4695FBF3F38BB063654FEAE873C3EB77
:101C6000A2034269A349A8F11E081BB2002A074635
:101C700008602365C4F8448005DD0021920004F16A
:101C8000180007F078F99C4A05EBD57516887A6834
:101C9000F6436B1002EBD272A3EB62032361974B06
:101CA0001FFA86FAB3F90620B3F904903E6A09FBDD
:101CB00002F5E6634FF033310295B3F802C0B3F892
:101CC00000B0FB68D7E91957C4E902574FF4005731
:101CD0004FF4404508FA03F39BB262446380E3800B
:101CE000531E0793864A874B516011605F611D61E7
:101CF0002A254FF480404FF4604E0BEB0908D56065
:101D000008F1FF384FEA1B255861186151601160D6
:101D1000C3F810E00395D5601FFA88F5C8F30728CB
:101D20005861186151601160C3F810E0C2F80CB03E
:101D30005861186151601160C3F810E00495CDF846
:101D40001480C2F80C8058614FF02B081861516064
:101D50001160C3F810E0D56058613D4618615160CC
:101D600011605F614FF440471F61C2F80C804FEA79
:101D70001C285861186151601160C3F810E0CDF85B
:101D80001880C2F80C8058611861079F51601FFAD3
:101D900087F8C7F307271160C3F810E0C2F80CC03A
:101DA0005861186151601160C3F810E0D7604FF4BA
:101DB00040475861186151601160C3F810E0C2F8E3
:101DC0000C8058611861516011605D611F612C27A2
:101DD000029DD76058616F1E1861ADB10AF01F05F2
:101DE0000AF4FC6848EAC528254648EADA28444649
:101DF000A846013F7D1C51601160C3F810E0D4601B
:101E000058611861F5D144460CF11D0E1FFA8EF58C
:101E1000C9EB091902954FF033304FF440482A2599
:101E20004FEA490A4FF400594FF480414FF460479C
:101E3000344B334ACEF3072E50601060C3F8149031
:101E4000C3F81080D560039D59611961506010601E
:101E50001F61D560059D59611961506010601F6157
:101E6000C2F80CB059611961506010601F61D560F3
:101E7000049D59611961506010601F61D5602B2568
:101E80005961196150601060C3F81490C3F8108054
:101E9000D560069D59611961506010601F61D56061
:101EA000029D59611961506010601F61C2F80CC039
:101EB00059611961506010601F61C2F80CE05961EE
:101EC0001961506010601F61D5602C2559610AF1BD
:101ED000FF3C196150601060C3F81490C3F8108083
:101EE000D56059611961BAF1000F1BD00CE000BF39
:101EF000ABAAAA2AD0070020DC070020E0070020B8
:101F0000000C01400010014044F6F77E0CF1FF3C4C
:101F1000BCF1FF3F506010601F61C2F80CE05961D6
:101F20001961F3D1002E1EDD0027B8460137C7EB3B
:101F3000071105230F22AB48CDF8008009B201F04C
:101F40002DFCB742F2D100274FF6E0780137C7EBFE
:101F5000071105230F22A348CDF8008009B201F034
:101F60001DFCB742F2D19F4DA36B9F4A052108A8E3
:101F700006F0B2FFA88908A9323880B2FEF7F0F95E
:101F80009A4B9B4A1B68052108A806F0A5FFA88963
:101F900008A9783880B2FEF7E3F9964B2146186815
:101FA000FEF736FD4FF4005AFFF7C8FD4FF44049E5
:101FB0004FF033314FF02A0B8F4D904BB5F800E0C6
:101FC0008F4D904AB5F90470B5F80280B5F906C096
:101FD0004FF480402D884FF4604651601160C3F883
:101FE00014A0C3F81090C2F80CB0BB4607FB0CF766
:101FF00058611861516011601E61CDF808B0AB44A2
:1020000003970BF1FF3B2F0A0497D7601FFA8BF75A
:10201000CBF3072B58611861516011601E61D560C8
:1020200058611861516011601E610597CDF818B0B4
:10203000C2F80CB04FF02B0BC44458610CF1FF3CBC
:102040001861516011601E61D7605861186151605C
:102050001160C3F814A0C3F81090C2F80CB04FEA96
:10206000182B58611861516011601E61CDF81CB0C9
:10207000C2F80CB01FFA8CFBCCF3072C58616FEA46
:102080000E0E1861516011601E61C2F80C8058611B
:102090001861516011601E61C2F80CC04FF02C0C29
:1020A0005861039F18611FFA8EFE516011601E6116
:1020B000C2F80CB05861186151601160C3F814A0E7
:1020C000C3F81090C2F80CC0586107F1FF3C1861CA
:1020D000BFB10EF4FC690EF01F0A49EACA2949EAA9
:1020E000DE29A6464C46029F0CF1FF3CBCF1FF3FA7
:1020F000516011601E61D46058611861F4D174465A
:1021000002974FF033314FF400594FF4404E4FF0E7
:102110002A0B4FF480404FF460464FF02B0A029B8D
:10212000384AC3EB0317354B7F00029751601160AB
:10213000C3F81490C3F810E0C2F80CB0DDF810B08A
:1021400058611861516011601E61C2F80CB058618D
:102150001861516011601E61D560069D586118615B
:10216000516011601E61D560586118615160116045
:102170001E61059D08F11D0CD560079D5861186111
:1021800051601160C3F81490C3F810E0C2F80CA0BD
:1021900058611861516011601E61D5602C251FFACD
:1021A0008CF7CCF3072C58611861516011601E61E7
:1021B000C2F80C8058611861516011601E61C2F84C
:1021C0000CC058611861516011601E61D760029F98
:1021D0005861186151601160C3F81490C3F810E0A1
:1021E000D56011E0EC070020D4060020D8070020BD
:1021F000CC060020D0070020DC07002000100140A2
:10220000E0070020000C014058617D1E18615FB19D
:1022100044F6F777013DB5F1FF3F516011601E6153
:10222000D76058611861F5D1244BE66B1B68D3F871
:102230002080B8F1000F0DDD00252F460135C5EBDC
:10224000051105230F221E48009709B201F0A6FAD6
:10225000A845F3D1002E0EDD00254FF6E0770135BD
:10226000C5EB051105230F221548009709B201F0AF
:1022700095FAAE42F3D1124DA36B124A052108A87C
:1022800006F02AFEA88908A9323880B2FEF768F85D
:102290000D4B0E4A1B68052108A806F01DFEA889F3
:1022A00008A9783880B2FEF75BF82146034B18681E
:1022B0000BB0BDE8F04FFEF7ABBB00BFD00700206E
:1022C000EC070020D4060020D8070020CC06002010
:1022D0002DE9F84F06224FF41651A54806F0B4FA3E
:1022E00002210A2006F0E2FB0221282006F0DEFB94
:1022F0000221272006F0DAFB0221262006F0D6FB79
:102300000221092006F0D2FB02212B2006F0CEFB91
:1023100001212A2006F0CAFB964C2B2006F082FCF5
:1023200018B92388002B00F083802B2006F07AFC5C
:1023300018B92388012B00F008810A2006F072FCEE
:102340000028EAD0282006F06DFC0028E5D08A4A53
:10235000012193690F2043F00803936106F0A6FB67
:1023600000210F2006F022FC01212D2006F09EFB0B
:1023700001212D2006F01AFC01212E2006F096FBEB
:1023800001212E2006F012FC01212F2006F08EFBE9
:1023900001212F2006F00AFC0121082006F086FB0F
:1023A0000820012106F002FC09274FF0800E0123CE
:1023B0004FF400587148724D724C4FF033324FF465
:1023C00080414FF440461EF07F096A6000F1020A26
:1023D0002A60C4F814802661EB60616121610FD02E
:1023E00053464FF4604609F1020C844413F8010B84
:1023F0006A609C452A602661E86061612161F5D1CF
:102400001EF0800F0AEB09000AD01AF80930461CAA
:10241000FF2B14BF18464FF4FA7006F045FC304607
:10242000013F17F0FF070AD0037890F801E0C4E7F6
:1024300001212A2006F0BAFB012323807DE74FF01B
:1024400033304FF480414FF460454FF400564FF461
:1024500040444FF0EF0A4FF02B094FF0010840F2D3
:102460003F1E4FF02A0B474B454A4FF02C0C506053
:1024700010605E611C61C2F80CB059611961506056
:1024800010601D61D76059611961506010601D6155
:10249000D76059611961506010601D61D760596142
:1024A0001961506010601D61C2F80CA0596119617A
:1024B000506010605E611C61C2F80C905961196136
:1024C000506010601D61D7605961196150601060E3
:1024D0001D61D76059611961506010601D61C2F8BB
:1024E0000C8059611961506010601D61C2F80CE0E8
:1024F00059611961506010605E611C614FF6FF7692
:102500004FF49634C2F80CC059611961013C506017
:1025100010601D61D66059611961F7D10121292030
:1025200006F0C4FA2146292006F040FB164A174B54
:10253000D0681749586017481C60FFF77FFBBDE85B
:10254000F84F4FF4FA7006F0AFBB01462A2006F0B0
:102550002DFB4FF4967006F0A7FB2B2006F062FBD4
:102560000028FAD04FF4FA6006F09EFBE5E600BFC3
:10257000E40A0020E80700200010024069970008E4
:10258000000C014000100140EC070020E007002093
:10259000780700200400002010B54FF4784482B082
:1025A00000944FF4FC640323B4212820374AFDF73C
:1025B0008FFF00940223DC212520354AFDF788FF98
:1025C000344C2B2006F02EFB08B923885BB32B205C
:1025D00006F028FB10B92388012B32D00A2006F020
:1025E00021FB0028EDD0282006F01CFB0028E8D0B5
:1025F000284C2B2006F016FB08B92388D3B12B20DA
:1026000006F010FB10B92388012B2CD00A2006F00D
:1026100009FB08B902B010BD282006F003FB002812
:10262000E7D102B010BD01212A2006F0BFFA012334
:102630002380D3E701212A2006F0B8FA0123238062
:10264000E4E701462A2006F0B1FA4FF4967006F04E
:102650002BFB2B2006F0E6FA0028FAD04FF4FA60A4
:1026600006F022FBBAE701462A2006F09FFA4FF453
:10267000967006F019FB2B2006F0D4FA0028FAD049
:102680004FF4FA6006F010FBC0E700BFFC960008AC
:10269000EC960008E80700202DE9F04F16460B469F
:1026A0000546DFF8C08289B04FF0333418F8068051
:1026B00001964FF400594FF440464FF02A0A4FF468
:1026C00080474FF46041A84A806B049313684044EC
:1026D000A64AB3F81CE0A64BA863A86CB5F850B0A6
:1026E0000EEB00084FEA4E0CB5F85400546014602D
:1026F000C3F814901E61C2F80CA0BDF810A01FFA18
:102700008CFC0AFB00EEA0EB0C00ABEB0C0C5F6149
:102710001F61546014601961CDF808A01FFA80FA97
:102720001FFA8CF0BDF804C0CDF80CC00CFB0B8870
:102730000FFA8AFC0FFA80FB0BFB0CFB0AF1FF3A45
:102740001FFA8EFCE244CEF3072EC2F80CE01FFA0B
:102750008AFECAF3072A5F611F6154601460196121
:10276000C2F80CC05F611F61546014601961C2F847
:102770000CA05F611F61546014601961C2F80CE025
:102780005F61B6461F6154601460C3F814901E6107
:102790002B261FFA88FC01386044C8F30728D6604E
:1027A0005F611F61546014601961C2F80C805F6141
:1027B0001F61546014601961C2F80CC01FFA80FCDC
:1027C000C0F307205F611F61546014601961D0601D
:1027D0002C205F611F61546014601961C2F80CC045
:1027E0005F611F6154601460C3F81490C3F810E077
:1027F000D0605F611F61BBF1000F0DD04FF0000C86
:102800000BF1FF300138461C546014601961C2F8A6
:102810000CC05F611F61F5D1534E102006F044FAE1
:102820003768039EB7F81CA0AF6C4FF033310AEB4A
:102830000708B5F850704FF4005E06FB07884FF0AC
:102840002A094FF440464FF480404FF46044484B0F
:10285000464AB5F854C0DDF808B051601160C3F8BD
:1028600014E01E61C2F80C904FEA4A091FFA89F978
:102870000BFB0CAAA7EB0907ACEB090C1FFA8CFCAD
:10288000BFB20FFA8CF90FFA87FB0BFB09FB0CF1B7
:10289000FF3C1FFA8AF9CC44CAF3072A5861186131
:1028A000516011601C61C2F80CA01FFA8CFACCF3C5
:1028B000072C58611861516011601C61C2F80C90BE
:1028C00058611861516011601C61C2F80CC04FF072
:1028D0002B0C1FFA88F9013F4F445861C8F30728B1
:1028E0001861516011601C61C2F80CA05861186138
:1028F00051601160C3F814E01E61C2F80CC01FFAE9
:1029000087FCC7F3072758611861516011601C618B
:10291000C2F80C8058611861516011601C61C2F8E6
:102920000C9058611861516011601C61D76058614A
:102930001861516011601C61C2F80CC058611861C7
:1029400051601160C3F814E01E612C260BF1FF37B3
:10295000D66058611861BBF1000F15D040F2FF7CC2
:1029600008E000BFC4060020D0070020000C014092
:1029700000100140013F7E1C516011601C61C2F8D3
:102980000CC058611861F5D1082006F08DF96A4B2A
:10299000B5F854C0B3F800E0684B029E1B68B5F868
:1029A00050909A8BAB6C06FB0C261344520092B2EB
:1029B000DDF80CA0ACEB020CA9EB02021FFA8CFCB8
:1029C00092B20AFB09330FFA82FB0FFA8CF90BFB68
:1029D00009FA1FFA86FBC6F3072603964FF0333138
:1029E0004FF400584FF440472A264FF480404FF4EC
:1029F00060441FFA83F9013AC3F30723CDF8089026
:102A0000059391444E4B4F4A0CF1FF3C51601160CD
:102A1000C3F814801F61D660039E5861DC441861BE
:102A2000516011601C61D66058611861516011607D
:102A30001C61C2F80CB04FF02B0B1FFA8CF6CCF3D4
:102A4000072C58611861516011601C61C2F80CC0FC
:102A50005861DDF814C01861516011601C61D660C6
:102A6000029E5861186151601160C3F814801F61A3
:102A7000C2F80CB058611861516011601C61C2F855
:102A80000CC05861C9F3072C1861516011601C61BA
:102A9000D6601FFA89F658616FEA0E0E1861516010
:102AA00011601C61C2F80CC058611861516011605E
:102AB0001C61D6602C2658611FFA8EFE1861516089
:102AC0001160C3F814801F61D66058610AF1FF36A7
:102AD0001861BAF1000F11D00EF4FC670EF01F0C54
:102AE00047EACC2747EADE27013EB6F1FF3F5160B7
:102AF00011601C61D76058611861F5D19DF80430F0
:102B00009DF81020104805F11801805C51F8232031
:102B100022EA000241F82320AB6B0C4A052106A8EB
:102B200006F0DAF90A4B06A99889323880B2FDF727
:102B300017FC09B0BDE8F08FDC070020D0070020AB
:102B400000100140000C014060970008D4060020EE
:102B5000EC0700202DE9F04F1F468B6C05689F4263
:102B600002EB050B80460C46164689B03D4408DC56
:102B7000ADB2AB4258DAC86CA84255DD00220292D1
:102B80005CE0C86C874252DAD1E9142196FBF1F976
:102B9000A7EB030C9CFBF2FECDF80C90DFF8009243
:102BA000CDF810E0CA46CDF804905FFA8EFE9DF88D
:102BB0000C9004EB8E0EDEF818E01AF8099019EA72
:102BC0000E0ECDF808E040F08380ADB2AB42C0F20B
:102BD000908055461FFA8BF99CFBF2F299FBF1F1BC
:102BE000D3B204EB8303C8B29B69285C184240F05F
:102BF0008B80029BC3B1E268636D5242E26096FB38
:102C0000F3F203FB126212B9A268002A0ADBD8F8B9
:102C10000020164496FBF3F203FB126626B9A26865
:102C2000002A01DD5242A26009B0BDE8F08FADB2CA
:102C3000AB42F9DA0022854202923DDA0122049287
:102C40000222DFF85CC10792CDF804C0D4E9142158
:102C5000A5EB030C9CFBF2FE1FFA8BF999FBF1FA32
:102C6000CDF814E05FFA8EFE04EB8E0EDEF818E06D
:102C7000CDF818A0CDF80CE0DDF804E05FFA8AFA90
:102C80001EF80AA0DDF80CE01AEA0E0F40D1A842A7
:102C900010DD9CFBF2F296FBF1F1DDF804E0D5B219
:102CA00004EB85055FFA81FCAD691EF80CC01CEAD7
:102CB000050F41D19F429CDD87429ADAD4E9142165
:102CC000A7EB030C364B1FFA8BF91D46019383E7E4
:102CD0002046DDE90312FFF7DFFCA36CADB2AB4287
:102CE0003DDAE06C85424BDB9F4284DD012202929B
:102CF000E2E78542E0DA4FF0010CCDF810C04FF06A
:102D0000020CCDF81CC0A3E72046FFF7C5FC72E714
:102D10002046DDE90521FFF7BFFCA36CAB420FDACB
:102D2000E06CA84235DD049AA5EB030C0292079AE9
:102D30000492D4E91421ACE72046FFF7ADFCA36C64
:102D40009F427FF758AFE26C9742BFF654AFD4E989
:102D50001421A7EB030C049B019D02933CE79F42C7
:102D60007FF749AFE26C9742BFF645AFD4E9142133
:102D7000A7EB030C0123019D1FFA8BF902932BE7AC
:102D8000012202920222049203220792D4E9142122
:102D90005EE79F427FF72FAF049A02928CE700BF55
:102DA0006097000870B51F4C0568B4F90C4002EB41
:102DB000050EA64504DB8C68002CC8BF64428C60FD
:102DC00022B98C68002CB8BF64428C601E2B04D8DA
:102DD000CC68002CB8BF6442CC600C69466804EB38
:102DE000060C624518DAA64516DD80684E6C304444
:102DF000834211DA1D44AE420EDAACF1020C624598
:102E00000BDA0234A24202DC8B6801338B60CB68A0
:102E1000002BC8BF5B42CB6070BD8B68013B8B60F1
:102E2000F5E700BFEC07002010B52B2005F0FAFEF7
:102E300010B9134C238843B12B2005F0F3FE18B9C9
:102E40000F4B1B88012B07D010BD01212A2005F054
:102E5000ADFE0123238010BD01462A2005F0A6FE09
:102E60004FF4967005F020FF2B2005F0DBFE0028C4
:102E7000FAD0BDE810404FF4FA6005F015BF00BF6E
:102E8000E80700202DE9F04383B005F00BFF964AD8
:102E90001368C31A022B02DC03B0BDE8F083934E23
:102EA0001060FFF7C1FF0A20356805F0BBFE904CAB
:102EB00010B92369013B2361282005F0B3FED4F843
:102EC000109018B909F10109C4F81090894F6A6887
:102ED000B7F90C309B1A4B45DCBF99462361B9F119
:102EE000000F02DA0023994623610125D6F80080FD
:102EF000814B40467E491D60FDF7ACFEE168D8F885
:102F00000C3081EAE17205FA03F0A2EBE172904223
:102F1000C4F8149009DCCA0F0029D4BF5242C2F190
:102F20000102411E02FB01F1E160A26882EAE27542
:102F3000A5EBE275A84209DCD50F002AD4BF6D428B
:102F4000C5F10105013800FB05F2A26020880244AA
:102F500092B222801A4195B262884046114489B2E9
:102F600041FA03F31FFA83F92A464B466180604910
:102F7000FFF7F0FD2A4640464B465D49FFF712FF3A
:102F8000D6F80080B7F90E20D8F80C006788D8F87A
:102F9000003047FA00F1CD18954267DAE5680093F2
:102FA000B4F80090E388A2880341024149FA00F096
:102FB000FEF72EF8E780A768E80FF90F002DD4BFC1
:102FC0004042C0F10100002FD4BF4942C1F10101CC
:102FD000A36BD8F81420DB10143303FB00F001FBC3
:102FE00003F3002AC4E90230A4F804901DDDA369AC
:102FF00063BB012A19D0E36943BB022A15D0236AB7
:1030000023BB032A11D0636A03BB042A0DD0A36A31
:10301000E3B9052A09D0E36AC3B9062A05D0236BB0
:10302000A3B9072A01D0636B83B934490B680F2B0E
:103030000CDC6C243248013304FB03000B602D4A86
:103040002B4903B0BDE8F043FEF7F8BD2D4B1B68DC
:10305000012B46D0E36B002B3FF71EAFFFF79CFA26
:103060000023244A22493068A363EAE7E76BD8F8D3
:103070002080013FB8F1000FE7630EDD0025A9466F
:103080000135C5EB051105230F221A48CDF8009034
:1030900009B200F083FBA845F2D1002F0FDD002517
:1030A0004FF6E0780135C5EB051105230F221148D5
:1030B000CDF8008009B200F071FBAF42F2D14FF4BD
:1030C000FA7005F0F1FDD6F80080E568D8F80C003C
:1030D0006788002DD8F80030C8BF6D4247FA00F16C
:1030E0005DE706490B68A4E774070020D0070020BD
:1030F00078070020EC07002000000020D8070020FF
:1031000004000020D407002008B54FF4A072F0217D
:10311000034800F027FB034B014A136008BD00BFC2
:10312000EC07002010970008704700BF10B4046837
:103130002469A44610BC604710B4BDF80440019453
:103140000468A46BA44610BC604700BF10B4BDF86F
:10315000044001940468E46BA44610BC604700BFBF
:10316000704700BFB0F90A2001F0010C01F0030123
:1031700081761146B0F90830BCF1000F1CBF1A4629
:103180000B46C281838170472DE9F043994287B095
:103190000446BDF93850BDF83C70066821D0AA42FB
:1031A00011D0D6F81490DFF88480C14534D1CDE930
:1031B00000572046B56AA8472368DB6A434526D1F5
:1031C00007B0BDE8F08399421DDD0E972046F46BF1
:1031D0000131CD1AA44619462BB207B0BDE8F04321
:1031E0006047AA420BDD0E972046B46B531CA446E1
:1031F0002A465B1B1BB207B0BDE8F04360472B4675
:1032000015461A46EFE718460B460146DDE720460D
:1032100007B0BDE8F0431847CDE904230391C84740
:10322000DDE9042326680399C1E700BF29310008BE
:103230002DE9F04107681C46114E7B6984B0B3420A
:103240000546BDF828800FD1631ECDF804800B44DD
:1032500000921BB22846BC6AA0472B68DB6AB342C7
:1032600009D104B0BDE8F081CDE902129847DDE94B
:1032700002122F68E8E7284604B0BDE8F04118477D
:10328000293100082DE9F0411C460B460168124E19
:103290004F6984B0B7420546BDF8288010D1013C83
:1032A000144424B2CDF8048000948C6A2846194650
:1032B000A0472B68DB6AB34209D104B0BDE8F081B6
:1032C000CDE90232B847DDE902322968E7E728464E
:1032D00004B0BDE8F0411847293100082DE9F04F4E
:1032E000D0F800C017461E46254ADCF8143083B0DB
:1032F000934204468B46BDF93080BDF834903AD1F4
:103300005E445E4516DDDFF87CA0DCF820505545B4
:1033100018D15946CDF800900BF1010BDCF838506C
:1033200043463A4620460FFA8BFBA847B345D4F8EC
:1033300000C0EADBDCF82C30114A934216D103B00E
:10334000BDE8F08F59460BF1010B43463A46204643
:10335000CDF800900FFA8BFBA8475E45D4F800C06B
:10336000D3DCDCF82C30064A9342E8D0204603B088
:10337000BDE8F04F18479847D4F800C0C0E700BF39
:1033800029310008393100082DE9F04F154685B084
:10339000BDF93880A3EB0109A8EB02020E460746EF
:1033A0008A4689EAE97082EAE271A1EBE271A0EB58
:1033B000E9708142AE46BDF83CC043DCB34280F2C6
:1033C0009180F21AA5EB08090FFA82FEC2F3C0340D
:1033D000B9F1000F7444B8BFC9F10009A84592B211
:1033E0004FEA640480F29180B6461D4646460123AA
:1033F000F04681421FFA89F94FDDBB46CDE9023222
:10340000DFF838A1CDF804C0DBF80020019B9769F4
:103410003146574508BF176958462A46B847A4EBB6
:1034200009031CB20135002C2DB29BB205DA039AB8
:1034300013441CB2029B1E4436B24545E4DD05B080
:10344000BDE8F08FA84517DAA5EB08020FFA82F95C
:10345000C2F3C0344C44A6EB0309B9F1000FB8BF66
:10346000C9F10009B34292B24FEA64045EDA9B46A6
:103470002E464346D846B7E70FFA82FEC2F3C03461
:103480007444B342814692B24FEA640454DC8142F0
:103490004FF6FF731FFA89F9AFDCBB46CDE9023264
:1034A000DFF898A0CDF804C0DBF800202946976922
:1034B000019B574508BF176958463246B847A4EBE9
:1034C00009031CB20135002C2DB29BB205DA039A18
:1034D00013441CB2029B1E4436B24545E4DD05B0E0
:1034E000BDE8F08F0FFA89F2C9F3C0341444A8453F
:1034F0001FFA89F24FEA640412DC2E4698465546BC
:103500004FF6FF731FFA81F9C7E746461D46D046BE
:103510004FF6FF7345457FF76CAF05B0BDE8F08F00
:1035200035469846764689460123F3E745461E46CA
:10353000F0464FF6FF735CE701235AE72D31000890
:103540002DE9F04F1D4603680F4616462E495A696D
:1035500083B08A420446BDF93090BDF8348045D12D
:10356000D3F824B0DFF8A4A0CDF80080D34508BF7D
:10357000D3F83CB032462B4639462046D84723681C
:1035800009F1FF32D3F824B03244D34512B2CDF85A
:10359000008033D1D3F83CA039462B462046D04793
:1035A0002368DFF86CA0D3F820B0CDF80080D345B5
:1035B00008BFD3F838B032464B4639462046D84784
:1035C0002068691E056A39445545CDF8008008BF5A
:1035D000856B4B463246204609B2A84723680A4A03
:1035E000DB6A934205D103B0BDE8F08F90472368B2
:1035F000B6E7204603B0BDE8F04F18472B463946E2
:103600002046D847CCE700BF293100084D310008DB
:10361000393100082DE9F04FD0F800C0DFF888E01C
:10362000DCF8406083B07645BDF93090BDF834A039
:1036300029D11F469046DCF814301C4A05469342B7
:103640000C462CD12744A74215DDDFF864B0DCF826
:10365000206021465E45CDF800A004F1010408BFBA
:10366000DCF838604B464246284624B2B047A742B1
:10367000D5F800C0EBDCDCF82C300C4A934209D1C1
:1036800003B0BDE8F08FB446CDE90C9A03B0BDE8B5
:10369000F04F6047284603B0BDE8F04F1847984701
:1036A000D5F800C0CEE700BFDD32000829310008A0
:1036B000393100082DE9F04FD0F800C0264BDCF876
:1036C00040400F469C42B0F90C80B0F90E9083B098
:1036D00034D1DCF81430DFF884B005465B4537D1CF
:1036E000B8F1000F14DD0024DFF874A0DCF82060CE
:1036F0004B4656454FF00002284621B200970ED1A6
:10370000DCF838600134B047A045D5F800C0EDD1F1
:10371000DCF82C305B450CD103B0BDE8F08F0134F0
:10372000B0474445D5F800C0E0D1DCF82C305B450B
:10373000F2D0284603B0BDE8F04F184700220191AF
:1037400043461146CDF80090A04703B0BDE8F08F86
:103750009847D5F800C0C3E7DD32000829310008DA
:1037600039310008F0B4002594462C464FF0FF375D
:10377000084E094A61F30F056CF31F45C0E9014586
:10378000C0E9035447618661047704620260F0BCBB
:10379000704700BF01010001949700082DE9F04F28
:1037A00089B0BDF848400F46016815460294744A36
:1037B0001C464B698346934240F0D380A6B2ABB21D
:1037C000D1F820806F487500ADB29A1B05938045F3
:1037D00005F1010312B21BB240F0CC8002980090B8
:1037E000D1F8388058463946C047C6F101006D42CD
:1037F000002C0FFA80FC0FFA85FE40F39480BBB2D8
:103800004FF0000AE1460393CDF810E02EE0A64207
:1038100000F08980059ADBF80030D71B039AA4B228
:103820001119D3F82080574A013D90453FB22DB27F
:1038300009B240F08180029A58460092D3F838804D
:103840003A462B46C047039BDBF800001C1B21B205
:103850004C4B046A9C425ED1029B3A460093846BB7
:103860002B465846A047B2455DDA3446B9F1000F01
:103870001FFA89F24DDB049B661E02331A441BB209
:1038800036B2049392B21FFA8AF707F1010A1FFABF
:103890008AF84FEA4805ADB20FFA8AFA6B1C1A444F
:1038A000B2450FFA82F9B2DC0599DBF80000B2B23A
:1038B0005300D0F820C08A1ADFF8C8E0039901331A
:1038C0004144F44512B21BB209B241D1DDF808C03F
:1038D000CDE90623CDF800C0D0F838C05846E047FF
:1038E000DDE906230399DBF80000A1EB0801DFF80E
:1038F00094C0D0F8208009B2E04524D1DDF808C09A
:10390000CDF800C0D0F838805846C047A64281D1D3
:10391000A9E72646B7E702982B4600903A46584654
:10392000A047B245A1DBDBF80030154ADB6A9342C1
:103930001BD109B0BDE8F08F029B3A460093584670
:103940002B46C0477FE7029800905846C047DDE706
:103950000298CDE9062300905846E047DDE90623AA
:10396000C0E79847DBF8001028E7584609B0BDE8E3
:10397000F04F18470299584600913946C04734E73E
:1039800029310008393100082DE9F04F95B0BDF814
:10399000784003920494BDF87C40026A05949DF837
:1039A0008040834606949DF884400B9108941C4601
:1039B000002A00F00581137A5168E31A1268DBB21D
:1039C000099201EBC30231F8333008990793069B43
:1039D00092F906A00B43012B9178744B92F8039057
:1039E0000591CDF84CA092F9051098BF4FF0000A50
:1039F0001A46D0F800C00A93DCF814308CBF0C9142
:103A0000CDF830A09342129140F06681B9F1000FD9
:103A100009D0059B4FF0000E73B90EF1010E5FFA4D
:103A20008EFEF145F9D8DCF82C300A9A934240F02A
:103A3000B38015B0BDE8F08F76467546BDF80C3002
:103A4000CDE910A90F93109B089A0EEB03080F9B6A
:103A5000374608FB02380FFA88F30024DA46CDE92E
:103A60000DE6039306E0059B0134E4B26D00A3422A
:103A7000EDB27ED93B4601375A07FFB205D1079A0E
:103A80000999531C9BB28D5C07932B06EBD5069BC3
:103A9000BDF82C10012B47D00C9B069A234403FB46
:103AA0000211DCF81C6013B2414ABDF92080964235
:103AB0000FFA81FB52D1DCF840603E4A96424DD16C
:103AC000DCF814300A9A93426BD1069B03EB0B0986
:103AD000D94511DC1EE0049B5946009350464346ED
:103AE000039ADCF838600BF1010B0FFA8BFBB0473F
:103AF000D945DAF800C00DDDDCF820602E4B9E427F
:103B0000E9D0DDF810C0434659465046039ACDF837
:103B100000C0E8E7DCF82C300A9A9342A3D0504664
:103B20009847DAF800C09EE7089B012BB4D1129B9E
:103B3000139A19440F9BDCF818609A180D9B2144C6
:103B40001A441E4B50469E4208BFDCF81060049B8E
:103B500009B212B2B047DAF800C084E7049A5946B5
:103B600001925046039ACDF80080B047DAF800C0C1
:103B700079E7DDE90DE633440EF1010EDEB2119B6B
:103B80005FFA8EFE7345D3463FF65DAFDCF82C300E
:103B90000A9A93423FF44DAF584615B0BDE8F04F36
:103BA000184750469847DAF800C08EE729310008D8
:103BB00015360008DD320008393100082D310008C3
:103BC000B0F90C200B468A427FF733AFB0F90E20D4
:103BD00003998A427FF72DAF069A02EB420203EB6C
:103BE0004202002A7FF725AF089B01EBC302002A9F
:103BF0004FEAC3067FF71DAF027F002A70D0DBF8C3
:103C000000C0A84BDCF814200A939A4240F044818B
:103C1000069BBDF82C70012B67D0DDE9043293427E
:103C200004EB840400F0EB80BDF92090BDF918A0EE
:103C30004B463A46D14607979A4667469A490996AF
:103C40004D1D05EB040E214453460824CA460025A9
:103C5000D9469B4611F8016BCDE90BE20FFA82F8C9
:103C60000D91F00754BF059B049B089ACDE900B362
:103C7000039BFF6905FB023241465346484612B298
:103C8000013CB847013514F0FF04D9F800706DB25B
:103C90004FEA5606E5D1DDE90BE25B460D99CB46CE
:103CA000D1469A46069B8E451A4492B2CCD1CA465A
:103CB000BC46099E079F059B5846CDE90063069BBD
:103CC000DCF81C4003EB830139445346039A09B2E4
:103CD000A047DBF800C0A6E69847DBF800C095E6F1
:103CE000AF2C84BF0134E4B289E7BDF80CA06E4963
:103CF000524604EB840421447C1DA3B2DA460C93A3
:103D000093466346CDE90E46BE4689460D97394631
:103D1000DDF81080089F0AB219F8016B07923AB2D9
:103D200008240025CDE910190992CDF82CE019E0FE
:103D3000012FAAB241D002FB07B2CDF80480099945
:103D400050460091D3F81C900799012312B2C8473E
:103D5000DAF80030013C013514F0FF046DB24FEA8F
:103D600056060CD0F107E3D4059A9045F2D0012F06
:103D7000AAB233D0059902FB07B20191DFE7DDF863
:103D80002CE00C9A0EF1010E1FFA8EFEDDE91019DF
:103D9000724501F1010189B2BDD1DDE90E469C46B3
:103DA000DDE904329342D3460D9F3FF43CAE089BBD
:103DB000012B60D04FF0010A7DE7D3F818903B4803
:103DC0005A44814508BFD3F8109050464346BDF988
:103DD0002C1012B2C847DAF80030BBE7D3F81890BD
:103DE00032485A44814508BFD3F810905046059B8D
:103DF000BDF92C1012B2C847DAF80030AAE72A4BF6
:103E0000BDF918A05A1D111923449E46D846624692
:103E10000B46D346082400251EF8016BBDF92090FF
:103E20000FFA87FA05930797CDF824E0F7070ED528
:103E3000049B5146CDE90093039BD769089A4046FD
:103E400005FB02325B4612B2B847D8F80020013CAD
:103E5000013514F0FF046DB24FEA5606E6D1059B1A
:103E6000079FDDF824E0069973450F44BFB2D1D116
:103E70009446C346D7E5059B0D4A21B2DCF82040A5
:103E80000093944208BFDCF8384008235846039A50
:103E9000A047DBF800C0C6E558469047DBF800C0F5
:103EA000B6E600BF29310008E49700082D3100086C
:103EB00039310008F0B50446006A0B4685B0002889
:103EC00047D00A293AD00D2940D0027A91423DD3F9
:103ED000817A99423AD345689A1AD2B205EBC20563
:103EE000AE7826B3EA7812B3E77EB4F9101094F8EE
:103EF00018C0B4F9122094F819E07FB195F9057053
:103F00003E440CFB0616B4F90C70BE4206DD0021DF
:103F10002182007B00FB0E2002B26282CDE902CE3C
:103F2000E08A0190A08A00902046FFF72DFD2979B4
:103F3000238A227E01FB0233238207E000222282B1
:103F4000638A027B617E01FB02336382012005B03C
:103F5000F0BD0A292AD00D29F8D0E67EB4F9101058
:103F6000277EB4F91220657E6EB1B4F90C6007EBC0
:103F7000470C01EB4C0CB44505DD014602EBC502D4
:103F800012B220826282CDE90275E08A0190A08A95
:103F900000902046FFF7F8FC0120237E228A03EBE5
:103FA000430302EB4303238205B0F0BD20820120CE
:103FB000638A627E03EBC203638205B0F0BD00BF7B
:103FC000012938BF01214FF0000361F3070361F3BA
:103FD0000F230383704700BF2DE9F04F002487B003
:103FE0000646DDE91185DDF84CE010980280A8F85E
:103FF0000030AEF800402C8011F8014B002C00F08E
:1040000088804FF0FF3747F6FF7B306ABA46D946C3
:10401000002800F0AD80CDE91185CDF84CE00A2CE8
:1040200000F0AB800D2C59D0057AA54256D890F8F7
:104030000AC0A44552D3651B4468EDB204EBC50524
:1040400095F802C0F47ECDF808C095F803C096F844
:104050001880CDF80CC095F804C0CDF810C095F9C3
:1040600005C095F906500595757E01959DB244B140
:10407000029CB6F90CE0644408FB0424744500F388
:10408000A18092B2019CDDF814E00CFB082C0EFB21
:104090000455DDF810E01FFA8CF408FB0E22DDF861
:1040A00008E00FFA8CFC08FB0E44013CE14524B209
:1040B000A8BFE146DDF80CE0A245DDF804C0B8BFBA
:1040C000A246ACB20CFB0E442DB2013CAB4524B26F
:1040D000A8BFAB46A742B8BF274612B211F8014BA2
:1040E000002C9CD1DDE91185DDF84CE0CA4507DBE9
:1040F000109BA3F800900AF10103A3EB09032B80A6
:104100005F4506DB7B1CA3EB0B03A8F800B0AEF801
:10411000003007B0BDE8F08F307E747E96F81BC08B
:1041200000EB40050194440002946C0002EB45054D
:10413000BCF1000F39D1019C1FFA82FCE400013D63
:104140001C44AA4504F1FF3401DA0FFA85FAA742AC
:1041500000DA27B29145A8BF91469B45A8BF9B4670
:10416000440020440CEB400002B211F8014B84B132
:104170000A2C10D00D2CCFD1F7E7747E027B04FB04
:10418000023311F8014B00221BB2002C7FF447AF21
:10419000A8E7129DAAE7707E11F8014B03EBC0035C
:1041A00000221BB2002CE3D1F3E7B6F90CC0AC45FA
:1041B000C1DA019A254603EBC203D40000221BB2E8
:1041C0009446BCE7037B019C002203FB04539DB291
:1041D0001BB257E7704700BF38B54FF47A730D4AEA
:1041E000054611780C4AB3FBF1F31268B2FBF3F009
:1041F00000F0A2F808B90F2D01D9012038BD0446FE
:10420000024629464FF0FF3000F03AF8034B2046B3
:104210001D6038BDD9060020FC060020DC06002009
:1042200008B5032000F01AF80020FFF7D5FFFFF7CC
:10423000D1FF002008BD00BF034A044B11681B7862
:104240000B441360704700BF10080020D9060020FF
:10425000014B1868704700BF100800204FF6FF0C94
:1042600006490302CA6803F4E06302EA0C0213433E
:1042700043F0BF6343F40033CB60704700ED00E0D0
:104280001B4B00B5DB68C3F30223C3F1070EBEF17D
:10429000040F03F1040C28BF4FF0040EBCF1060F0D
:1042A0001CD9A3F1030C4FF0FF3303FA0CF322EAFD
:1042B00003024FF0FF3303FA0EF321EA030303FA7C
:1042C0000CF313431B010028DBB20ADB00F1604052
:1042D00000F5614080F800335DF804FB002294464D
:1042E000E7E7044A00F00F00024413765DF804FB90
:1042F00000ED00E0FCEC00E0002807DB012300F00B
:104300001F01034A40098B4042F82030704700BF2C
:1043100000E100E000280CDB01220649430900F01F
:104320001F002033824041F82320BFF34F8FBFF39B
:104330006F8F704700E100E00138B0F1807F01D35A
:10434000012070474FF0E0234FF0F00C00220721CE
:1043500010B4044C586184F823C010469A6110BC14
:104360001961704700ED00E0002808DB01224309D5
:10437000034900F01F006033824041F8232070475A
:1043800000E100E0704700BF08B5FFF7FBFF08BD84
:10439000704700BF80B110B54379044603F0FF02B7
:1043A0001BB101236371002010BD0271FFF7F0FF04
:1043B00001236371002010BD0120704758B1022312
:1043C00010B50371044602F08BFA00232361637178
:1043D0002371184610BD0120704700BF88B14FF00F
:1043E000010C034610B4046801F0100122680CFAB5
:1043F00001F122EA0102226083F804C0002010BC0F
:1044000070470120704700BF90F821200346022A20
:1044100006D004229A630022012083F820207047EE
:104420004FF0010C1A680020116821F00E01116094
:10443000116821F001011160D3E90F120CFA02F2A8
:104440004A60002283F821C083F82020704700BF13
:1044500090F821200346022A03D0042201209A6307
:104460007047026810B511681B4821F00E011160F9
:104470001168824221F00101116022D017498A425D
:104480001DD014318A421ED014318A421ED01431FC
:104490008A421ED014318A4214BF4FF080724FF40A
:1044A0008012012000210E4C62605A6B83F82100BB
:1044B00083F820100AB118469047002010BD102242
:1044C000EFE70122EDE74FF48072EAE74FF4805204
:1044D000E7E74FF48032E4E7080002401C000240A6
:1044E0000000024090F82100704700BF044A516963
:1044F000014200D1704708B5506102F0B3FA08BD1F
:1045000000040140704700BFB0B12423026810B519
:1045100080F83D301368044623F001031360FFF771
:10452000F1FF0023236484F83C3084F83D3023639A
:1045300084F83E30184610BD0120704790F83DC009
:104540000CF0280CBCF1280F31D100292DD0002A05
:104550002BD070B590F83C4082B0012C2ED005686D
:104560002C68E40725D500244FF0290E4FF0200CCD
:104570002E6826F400662E6080F83DE080F83EC08C
:1045800004644285428DC36201946B694162019368
:10459000AB69028580F83C4020460193019B6B6823
:1045A00043F4E0636B6002B070BD012070470220ED
:1045B00070472C6844F001042C60D4E70220F2E735
:1045C00090F83DC00CF0280CBCF1280F31D1002927
:1045D0002DD0002A2BD070B590F83C4082B0012C31
:1045E0002ED005682C68E40725D500244FF02A0E4C
:1045F0004FF0200C2E6826F400662E6080F83DE017
:1046000080F83EC004644285428DC36201946B69A8
:1046100041620193AB69028580F83C4020460193DA
:10462000019B6B6843F4E0636B6002B070BD0120D6
:104630007047022070472C6844F001042C60D4E7D6
:104640000220F2E790F83D30202B01D00220704785
:104650002822036880F83D201A68D20703D41A681C
:1046600042F001021A601A68002042F480621A6067
:104670005A6842F440725A60704700BF704700BFEA
:10468000704700BF704700BF08B590F83D20016D2E
:10469000034659B9C26C0168012A826C1BD0C2F36F
:1046A00007220A61026D0132026508BD016D012910
:1046B00009D0016D022914D003685A69120644BF5B
:1046C00000221A6108BD826C0168D2B20A61026DD3
:1046D0000132026508BDD2B20A61026D0232026582
:1046E00008BDD2B2222A22D0418D89B2D9B9418DDA
:1046F00089B20029D9D1212AD7D10268D2F804C0C1
:104700002CF4E06CC2F804C0D2F800C04CF4007C79
:10471000C2F800C02022016380F83D2080F83E10DE
:10472000FFF7B0FF08BD212A0AD05B8D08BD0168E4
:104730000A6842F480720A60026D0132026508BDA7
:10474000416A026811F8010B10615A8D5962013AF1
:1047500092B25A8508BD00BF704700BF704700BFC6
:1047600000213A4B70B51B68394ADB08A2FB0323D2
:10477000406A82B001911B0A90F83D1003EB83035D
:10478000C3EBC30302680193C9B205E0019B013B7F
:10479000019313689B0506D5019B002BF6D1036C92
:1047A00043F020030364D0E90D4344B30025A56220
:1047B000F3B116689D6226F48066166045856563D0
:1047C00000245C63136823F00103136090F83D300C
:1047D000602B29D001F02801282918D0202200239D
:1047E00080F83D2080F83E3003F030FD02B070BD0F
:1047F000156825F48065156043856363E2E7F3B1CE
:1048000015689C6225F4806515604485D8E700240E
:10481000136843F001031360136843F4806313606B
:10482000046380F83D10DFE70023202280F83D205C
:1048300080F83E300364FFF791FF02B070BD14684A
:1048400024F4806414604385BCE700BFFC060020AC
:1048500089B5F81410B590F83D2090F83E30044624
:10486000102BD2B239D0D9B2402936D002F028016B
:10487000282923683CD05968080507D4602A05D048
:104880002021002284F83D1084F83E20002222637B
:104890005A6812F4006233D194F83D10602974D044
:1048A0005A69500605D51A69636A1A70636A01333A
:1048B0006362204603F0CAFC236C190704D0226807
:1048C000536823F4E063536094F83D30226CDBB20C
:1048D000520701D5282B2ED010BD222AC6D123681D
:1048E0001A6822F400621A605A681205C8D5CDE72A
:1048F0000022226384F83D105A6812F40062CBD083
:104900005A68606B22F400625A6090F82130012BE3
:104910001ED0294B4363FFF79BFD0028CCD02021FC
:104920002268606B136823F00103136084F83D1064
:10493000436B9847C0E70023202220492046E162CC
:10494000236384F83D2084F83E3003F051FC10BD11
:10495000A06B194B4363FFF77BFD0028ACD02368A5
:104960005A69510606D51A69636A1A70626A236821
:104970000132626220211A68A06B22F001021A60E3
:1049800084F83D10436B984796E7202184F83D104A
:1049900022645A69520606D51A69636A1A70626AF5
:1049A0002368013262621A68204622F001021A600E
:1049B000FFF7D4FE80E700BF614700080000FFFF5B
:1049C000F0B5036804465F68C56A90F83E2090F829
:1049D0003D10102A8FB0C9B2D0B223D0402821D0C8
:1049E000226C002A00F0CF8000205A6912F00205E4
:1049F00000F08F80BD0540F18E80226C02B1986975
:104A000094F83D2002F02802282A00F03C8200227F
:104A10000C9259690C919B6984F83C200C930C9B77
:104A20000FB0F0BD9E695A6912F0010F1AD1B5F5A9
:104A30002A0FF5D0B5F12A4FF2D012F0080537D081
:104A4000BD0539D5626C616BD2B21A61002900F0E4
:104A500007828A6A002A00F003825A6842F40062E0
:104A60005A60DDE7BD0527D5E26AB2F52A0F00F0EE
:104A70000082E26AB2F12A4F04BF0822E26294F88F
:104A80003E20402A00F0F8812269B2F5804F00F004
:104A9000D681226D002A00F06281226D012ABFD1E9
:104AA000626CD21102F0060242F0F1021A61B7E71D
:104AB00012F0020F40F03E81760767D55D682D0544
:104AC000AED4160602F0040540F151817A0540F19A
:104AD0004E81002D40F04E8194F83D20208D94F8B9
:104AE0003E10D2B2E56AC9B2002840F09B82212A6A
:104AF00000F0A883402993D1222A91D1628D92B2ED
:104B0000002A00F0D88294F83E20402A40F0F98034
:104B100039E1D60664D401F0F701212902F004003E
:104B200000F0BA80550640F1F680790540F1F38037
:104B3000002840F0F38094F83D10628DC9B292B223
:104B4000002A3FF46DAF1A69636A1A70638D626A56
:104B5000013B9BB26385638D01329BB26262002B85
:104B60007FF45EAF2A297FF45BAF222528212268DB
:104B70002046536823F480635360256384F83D1016
:104B800003F04EFB4CE798695A692FE759680D0509
:104B90003FF546AF500602F0040100F1FA8000290B
:104BA0003FF43EAFBE057FF53BAFE06A628D616AC0
:104BB00092B2042A00F00482628D92B2032A00F0BD
:104BC0004382628D92B2022A00F07A821B690B70D6
:104BD000638D626A013B01329BB2626263851FE7AB
:104BE000B80598D594F83D605A68F6B222F4E062B0
:104BF0005A600D955A690D921A6842F001021A60C6
:104C00000D9A1A6822F480621A605A68110500F140
:104C1000E680638D9BB213B323685A6952070AD5A5
:104C20001A69636A1A70628D636A013A591C92B2FA
:104C30002368616262855A69570609D51A69636AF1
:104C40001A70638D626A013B01329BB262626385B6
:104C5000638D9BB21BB1236C43F004032364236C6C
:104C6000002B40F0E6802A2E00F0738194F83D304E
:104C7000282B00F06181236B222B02D0222E7FF49F
:104C8000CFAE002320222363204684F83D2084F801
:104C90003E3003F0C5FAC3E6150627D57A0525D5BB
:104CA00038BB94F83D00628DC0B292B2002A3FF446
:104CB000B7AE626A12F8015B1D616262628D013AF1
:104CC00092B26285628D92B2002A7FF4A9AE292841
:104CD0007FF4A6AE28255A68204622F480625A60E6
:104CE000216384F83D5003F0ADFA99E600283FF4C3
:104CF00097AEBE057FF594AE628D92B2002A3FF466
:104D00008FAE626A12F8011B1961638D6262013B0A
:104D10009BB2638584E600283FF482AEBA057FF536
:104D20007FAE628D92B2002A3FF47AAE1A69636A4E
:104D30001A704DE717F4007F3FF4BEAE94F83E20A2
:104D4000E06A266B94F83D10D2B2222900F0D88098
:104D50000A955A690A929B690A930A9B60E6626CFB
:104D6000D21102F0060242F0F0021A6158E6002D5C
:104D70003FF456AEBE057FF553AE212900F02781E2
:104D800040287FF44DAE20460FB0BDE8F040FFF75D
:104D90007BBC7A057FF503AF00297FF403AF94F85D
:104DA0003D20222A7FF43CAEE06A628D92B2032A53
:104DB00040F20F821A69636A1A70638D626A013B5E
:104DC0009BB26385638D01329BB2032B62627FF4D9
:104DD00027AE2268536823F48063536020E606F010
:104DE000F702222A6BD0606B0268526892B2628529
:104DF000628D92B21AB1226C42F0040222645A68A7
:104E000022F400625A60FFF76DFB012808D0606B46
:104E1000954B4363FFF71CFB10B1606B436B9847E6
:104E2000638D9BB2002B7FF4F7AE236C002B3FF415
:104E30001DAF20460FB0BDE8F040FFF70BBD94F862
:104E40003D20212A626C16BF42F0010202F0FE02F0
:104E5000D2B21A61626B1AB1926A002A7FF4FDAD78
:104E6000A26B002A3FF4DCAD926A002A7FF4F5AD14
:104E7000D6E50122E26202E6226DD2B9626C02F04E
:104E8000FE021A61CCE55A68070622F480625A6075
:104E90004FF0000354BFE268A269C0F3800181F0C3
:104EA00001012046C9B292B284F83C3003F068F99F
:104EB000B6E5626C42F00102D2B21A61B0E5A06BB5
:104EC0000268526892B26285628D92B21AB1226C07
:104ED00042F0040222645A6822F400625A60FFF72A
:104EE00001FB01283FF495AEA06B5F4B4363FFF7D6
:104EF000AFFA00283FF48DAEA06B436B984788E66D
:104F0000216D11B9402A00F08680226D22B92169F5
:104F1000B1F5404F00F08A80628D92B24ABB029296
:104F20005A6902929A690292029A1A6842F40072CD
:104F30001A600023236573E5002320224B49204695
:104F4000E162236384F83D2084F83E3003F050F999
:104F500066E528222363204684F83D2003F060F9AB
:104F600094F83D30282BE7D0236B222B7FF458ADEB
:104F700087E6628D92B2012A7CD0628D92B2022ABB
:104F800000F0E9801A6842F480621A605A681205DB
:104F90000ED5202800F2B381072840F2AC81344AB4
:104FA0000838C240D70703D55A6842F480525A6085
:104FB000002209925A6909929B690993099BB8E7F3
:104FC0005A6822F480625A601B690B7000E6E16A3D
:104FD00094F83D20212A7FF423AD628D92B2002AFD
:104FE0007FF48FAE082900F0DC80202900F0D98002
:104FF00011F5803F00F0D580112620252046596804
:1050000021F4E0615960266384F83E2084F83D5025
:10501000FFF734FB04E500915A6900929B69009305
:10502000009BFDE4212A7FF465AD67E501925A6992
:1050300001929A690192019A1A6842F480721A6088
:10504000236D01332365EBE45A68042822F480625F
:105050005A603FF4BBAD02283FF4B8AD1A6822F4A1
:1050600080621A60B2E500BF614700080000FFFFE0
:105070000101000110F5803F00F00F81082800F0C9
:10508000F980202800F0F680122E00F05C811028B4
:1050900000F25B819C4A0241D20700F156811A68F6
:1050A00042F480621A60002205925A6905929B6957
:1050B0000593059B3DE75A6822F480625A60AFE48D
:1050C000421E0F2A09D8DFE802F0413C083C0808DC
:1050D000080808080808080808411A6842F400721D
:1050E0001A601B690B702021638D2268013B9BB203
:1050F0006385636A12695D1C65625A70638D2268FC
:10510000013B9BB26385636A01336362536823F496
:105110004073536084F83D1094F83E30402B4FF0BC
:10512000000300F0048184F83E30082800F0B280CB
:10513000202800F0AF80122323632046FFF7A0FA57
:105140006EE41A6842F480621A60CAE71A6822F4B0
:1051500080621A60C5E710284FF0000100F2B180AC
:105160006A4AC240D70740F1AC801A6842F48062B4
:105170001A6008915A6908929A690892089A5A68BE
:1051800015057FF5D6AE072840F2D980604A083869
:10519000C240D1077FF5CDAE5A6842F480525A60C2
:1051A000C7E600222020596821F4E061596019689F
:1051B00041F400711960226384F83D0094F83E3098
:1051C0002046402B84F83E207FF422AFFFF75AFAA6
:1051D00026E4E56A022D3FF46EAF012A3FF66BAF7D
:1051E00046F2A8154B4A0B911268B2FBF5F202EB9E
:1051F00082020B9204E01A6812F4007200F0AA8096
:105200000B9A013A0B920B990029F4D12025226CBC
:10521000606A42F0200222645A6822F4E0625A6016
:105220001B690370638D626A013B01329BB2638527
:10523000204684F83D50626284F83E1003F006F880
:10524000FFF7EEBB082DACD0202DAAD015F5803F7E
:10525000A7D01126002520215A68204622F4E062BA
:105260005A60266384F83E5084F83D10FFF706FA32
:10527000FFF7D6BB00211A6822F480621A600691FB
:105280005A6906929A690692069A1A6842F400725E
:105290001A604EE6002323634FE71A6822F4806207
:1052A0001A605A6812F4006236D000211A6822F49B
:1052B00080621A6003915A6903929B690393039B6E
:1052C00037E61A6842F400621A6007915A69079239
:1052D0009A690792079A1A6822F480621A605A68DB
:1052E00016057FF526AE20287FF64DAF10F5803FDE
:1052F0007FF41FAE50E701287FF45AAE54E610F554
:10530000803F7FF455AE4FE6EBFFFEFF1400010037
:1053100001010001FC06002004925A6904929A6976
:105320000492049A1A6842F400721A6001E684F842
:105330003E3020462363FFF70FFAFFF771BB0128C9
:105340007FF4F7AD28E7012894D11A6822F480622F
:105350001A60A8E6196821F480611960596821F47F
:10536000E061596020211D69636A1D70636A013321
:105370006362638D013B9BB2638584F83D1094F8B2
:105380003E3084F83E20402B7FF4CFAE204622638F
:10539000FFF7E2F9FFF744BBF0B5036883B05D693E
:1053A000596890F83E20EE05D2B205F4007427D576
:1053B000CF0505F4806626D56FF4807159611968B0
:1053C00041F400411960002C42D1002E72D009270F
:1053D0000124418D90F83D60202AD0F830C089B278
:1053E000F6B243D06FF48061102A596144F0040191
:1053F00033D0402A31D02F052DD541F0080416E0D6
:105400001CB1C90507D403B0F0BD6E051AD5C90596
:10541000F9D50827DDE70A27022405F480666FF432
:1054200000715961002ED4D12A0503D53C466FF492
:1054300000625A61036C1C43046403B0BDE8F04091
:10544000FFF708BA2C05DED5CA05DCD50824EEE73F
:105450000B270324E3E70C46ECE71A682E0542F419
:1054600000721A60F7D544F00C04E0E7E1B906F0E9
:10547000F702212A04D0282E16D1BCF1210F13D116
:1054800090F83D20C16AD2B2082919D0202917D03E
:10549000212A05F4006534D06FF480625A61002D32
:1054A000C4D1002CC6D1AEE76FF4806244F0040191
:1054B0005A61A0E72D0501D50924B8E70124B9E711
:1054C000282AE5D16FF4806C002120261F4A019024
:1054D000C2625A6822F4E0625A60C3F814C01A68C3
:1054E00002EA0C021A60016380F83D6080F83E1009
:1054F00002F07EFE15F4006F0198D2D03C4603689E
:1055000095E700214FF0200C6FF48066DFF83CE057
:105510000190C0F82CE0026380F83DC080F83E1096
:105520005A6822F4E0625A605E611A6832401A607A
:105530005A69120648BF196102F084FE0198002DD5
:10554000DCD1002C7FF476AF5DE700BF0000FFFFE9
:10555000002800F0B6812DE9F04103680446DD071C
:1055600082B035D59A494A6802F00C02042A00F04C
:10557000EF804A6802F00C02082A00F0E5806368B8
:10558000B3F5803F10D0002B00F00C81B3F5A02FB5
:1055900000F082818E4B1A6822F480321A601A68F9
:1055A00022F480221A6004E0894A136843F48033AD
:1055B0001360FEF74DFE864E054605E0FEF748FEF9
:1055C000401B642800F2EA8033689A03F6D523680A
:1055D0009F0728D57E4A516811F00C0F00F08D808E
:1055E000516801F00C01082900F083802369002B29
:1055F00000F018810122774B754E1A60FEF728FEE5
:10560000054605E0FEF724FE401B022800F2C68096
:1056100033689807F6D53368626923F0F80343EAE4
:10562000C203336023681A071FD45D0742D5684B55
:10563000DA69D0007DD50025674E3368D90540F181
:105640009D80E368012B00F0FE80002B00F0CA80F3
:10565000052B5F4B1A6A00F02C8122F001021A62BE
:105660001A6A22F004021A62F2E0A369002B4FD0FA
:105670000122584B564EC3F88024FEF7E9FD05463B
:1056800005E0FEF7E5FD401B022800F28780736A03
:105690009B07F6D5514B524A1B68A2FB03235B0ABA
:1056A000019300BF019B5A1E0192002BF9D1236880
:1056B0005D07BCD4E369C3B1454D6A6802F00C02D2
:1056C000082A00F0D8800022022B424B1A6600F014
:1056D000FA80FEF7BDFD044604E0FEF7B9FD001BAD
:1056E00002285BD82B689B01F7D4002002B0BDE8EC
:1056F000F0815268D6033FF579AF354A12689507B5
:1057000030D52269012A2DD0012002B0BDE8F081F8
:10571000304A2F4EC2F88034FEF79AFD054604E069
:10572000FEF796FD401B022838D8736A9F07F7D40E
:10573000BDE7DA69012542F08052DA61DB6903F0E6
:1057400080530093009B77E74A68D0037FF517AF3B
:105750001F4A126891037FF53BAF6268002A7FF40D
:1057600037AFD1E71A4960690A6822F0F80242EAC5
:10577000C0020A601A077FF558AF76E7336843F432
:1057800080733360FEF764FD07463368DA053FF542
:1057900058AFFEF75DFDC01B6428F6D9032002B0A8
:1057A000BDE8F0810A4D2B6823F480332B602B6811
:1057B00023F480232B60FEF74BFD064604E0FEF742
:1057C00047FD801B6428E9D82B689B03F7D4FEE6CD
:1057D000001002400000424200700040FC06002021
:1057E000D34D6210504E41F28838336A23F00103E2
:1057F0003362336A23F004033362FEF729FD074660
:1058000004E0FEF725FDC01B4045C7D8336A980762
:10581000F7D4002D3FF44EAF434AD36923F08053B1
:10582000D36147E7414A404E1360FEF711FD05463C
:1058300004E0FEF70DFD401B0228AFD8336899073E
:10584000F7D42368EFE6384A136A43F00103136282
:10585000FEF7FEFC41F288380646334F04E0FEF7BF
:10586000F7FC801B404599D83B6A9B07F7D5002D74
:105870003FF420AFD0E7012B3FF446AF6B68226ABC
:1058800003F4803191427FF43FAF606A03F47013F8
:10589000181A18BF012029E703F18043A3F53C3310
:1058A0001A6842F480221A601A6842F480321A6040
:1058B0007FE642F004021A621A6A42F001021A629A
:1058C000C6E701207047FEF7C3FC064605E0FEF779
:1058D000BFFC801B02283FF661AF2B689901F6D40C
:1058E000236AB3F5803F05D1EA6AA16822F00F026E
:1058F0000A43EA6201200C4D616A6A680B4322F494
:1059000074120A4913436B600866FEF7A1FC044653
:1059100005E0FEF79DFC001B02283FF63FAF2B6819
:105920009A01F6D5E1E600BF0010024000004242B5
:10593000002800F08580F8B5036804469D0714D55B
:10594000580704D53F494A6842F4E0624A601907A3
:1059500004D53C494A6842F460524A603949A0681B
:105960004A6822F0F00202434A60DA0721D56268F1
:10597000344B012A1B685ED0022A58D09D0758D5A7
:10598000304D41F288376B6823F0030313436B609B
:10599000FEF75EFC064604E0FEF75AFC831BBB42A2
:1059A0004CD86B68626803F00C03B3EB820FF3D141
:1059B0002368580706D52349E0684A6822F4E06264
:1059C00002434A60190707D51E4A2169536823F428
:1059D000605343EAC10353601A494A6802F00C035A
:1059E000082B0FD0184B174A184852681849C2F3B1
:1059F0000312805C174AC34008681360FEF7ECFB93
:105A00000020F8BD1448C2F38343D203C35C0AD517
:105A10000D48CA6A00FB03F3104902F00F028A5CCA
:105A2000B3FBF2F3DFE70E4A02FB03F3DBE79E0171
:105A3000A6D40120F8BD9F03A2D4FAE70320F8BD45
:105A4000012070470010024000127A004C9D0008AF
:105A5000DC060020FC060020F49C0008E49C000802
:105A600000093D00044B054A5B680549C3F3022366
:105A7000CB5C1068D840704700100240FC06002044
:105A8000449D0008044B054A5B680549C3F3C223E3
:105A9000CB5C1068D840704700100240FC06002024
:105AA000449D000800287AD070B590F83D30044637
:105AB00003F0FF02002B6DD002222368394E84F8D8
:105AC0003D20B342A569E06861681A6820D0B3F14F
:105AD000804F1DD0A6F59436B3424CD006F58066B3
